{"abi":[{"type":"constructor","inputs":[{"name":"initialOwner","type":"address","internalType":"address"}],"stateMutability":"nonpayable"},{"type":"function","name":"allowance","inputs":[{"name":"owner","type":"address","internalType":"address"},{"name":"spender","type":"address","internalType":"address"}],"outputs":[{"name":"","type":"uint256","internalType":"uint256"}],"stateMutability":"view"},{"type":"function","name":"approve","inputs":[{"name":"spender","type":"address","internalType":"address"},{"name":"value","type":"uint256","internalType":"uint256"}],"outputs":[{"name":"","type":"bool","internalType":"bool"}],"stateMutability":"nonpayable"},{"type":"function","name":"balanceOf","inputs":[{"name":"account","type":"address","internalType":"address"}],"outputs":[{"name":"","type":"uint256","internalType":"uint256"}],"stateMutability":"view"},{"type":"function","name":"burn","inputs":[{"name":"value","type":"uint256","internalType":"uint256"}],"outputs":[],"stateMutability":"nonpayable"},{"type":"function","name":"burnFrom","inputs":[{"name":"account","type":"address","internalType":"address"},{"name":"value","type":"uint256","internalType":"uint256"}],"outputs":[],"stateMutability":"nonpayable"},{"type":"function","name":"decimals","inputs":[],"outputs":[{"name":"","type":"uint8","internalType":"uint8"}],"stateMutability":"view"},{"type":"function","name":"flashFee","inputs":[{"name":"token","type":"address","internalType":"address"},{"name":"value","type":"uint256","internalType":"uint256"}],"outputs":[{"name":"","type":"uint256","internalType":"uint256"}],"stateMutability":"view"},{"type":"function","name":"flashLoan","inputs":[{"name":"receiver","type":"address","internalType":"contract IERC3156FlashBorrower"},{"name":"token","type":"address","internalType":"address"},{"name":"value","type":"uint256","internalType":"uint256"},{"name":"data","type":"bytes","internalType":"bytes"}],"outputs":[{"name":"","type":"bool","internalType":"bool"}],"stateMutability":"nonpayable"},{"type":"function","name":"maxFlashLoan","inputs":[{"name":"token","type":"address","internalType":"address"}],"outputs":[{"name":"","type":"uint256","internalType":"uint256"}],"stateMutability":"view"},{"type":"function","name":"mint","inputs":[{"name":"to","type":"address","internalType":"address"},{"name":"amount","type":"uint256","internalType":"uint256"}],"outputs":[],"stateMutability":"nonpayable"},{"type":"function","name":"name","inputs":[],"outputs":[{"name":"","type":"string","internalType":"string"}],"stateMutability":"view"},{"type":"function","name":"owner","inputs":[],"outputs":[{"name":"","type":"address","internalType":"address"}],"stateMutability":"view"},{"type":"function","name":"renounceOwnership","inputs":[],"outputs":[],"stateMutability":"nonpayable"},{"type":"function","name":"symbol","inputs":[],"outputs":[{"name":"","type":"string","internalType":"string"}],"stateMutability":"view"},{"type":"function","name":"totalSupply","inputs":[],"outputs":[{"name":"","type":"uint256","internalType":"uint256"}],"stateMutability":"view"},{"type":"function","name":"transfer","inputs":[{"name":"to","type":"address","internalType":"address"},{"name":"value","type":"uint256","internalType":"uint256"}],"outputs":[{"name":"","type":"bool","internalType":"bool"}],"stateMutability":"nonpayable"},{"type":"function","name":"transferFrom","inputs":[{"name":"from","type":"address","internalType":"address"},{"name":"to","type":"address","internalType":"address"},{"name":"value","type":"uint256","internalType":"uint256"}],"outputs":[{"name":"","type":"bool","internalType":"bool"}],"stateMutability":"nonpayable"},{"type":"function","name":"transferOwnership","inputs":[{"name":"newOwner","type":"address","internalType":"address"}],"outputs":[],"stateMutability":"nonpayable"},{"type":"event","name":"Approval","inputs":[{"name":"owner","type":"address","indexed":true,"internalType":"address"},{"name":"spender","type":"address","indexed":true,"internalType":"address"},{"name":"value","type":"uint256","indexed":false,"internalType":"uint256"}],"anonymous":false},{"type":"event","name":"OwnershipTransferred","inputs":[{"name":"previousOwner","type":"address","indexed":true,"internalType":"address"},{"name":"newOwner","type":"address","indexed":true,"internalType":"address"}],"anonymous":false},{"type":"event","name":"Transfer","inputs":[{"name":"from","type":"address","indexed":true,"internalType":"address"},{"name":"to","type":"address","indexed":true,"internalType":"address"},{"name":"value","type":"uint256","indexed":false,"internalType":"uint256"}],"anonymous":false},{"type":"error","name":"ERC20InsufficientAllowance","inputs":[{"name":"spender","type":"address","internalType":"address"},{"name":"allowance","type":"uint256","internalType":"uint256"},{"name":"needed","type":"uint256","internalType":"uint256"}]},{"type":"error","name":"ERC20InsufficientBalance","inputs":[{"name":"sender","type":"address","internalType":"address"},{"name":"balance","type":"uint256","internalType":"uint256"},{"name":"needed","type":"uint256","internalType":"uint256"}]},{"type":"error","name":"ERC20InvalidApprover","inputs":[{"name":"approver","type":"address","internalType":"address"}]},{"type":"error","name":"ERC20InvalidReceiver","inputs":[{"name":"receiver","type":"address","internalType":"address"}]},{"type":"error","name":"ERC20InvalidSender","inputs":[{"name":"sender","type":"address","internalType":"address"}]},{"type":"error","name":"ERC20InvalidSpender","inputs":[{"name":"spender","type":"address","internalType":"address"}]},{"type":"error","name":"ERC3156ExceededMaxLoan","inputs":[{"name":"maxLoan","type":"uint256","internalType":"uint256"}]},{"type":"error","name":"ERC3156InvalidReceiver","inputs":[{"name":"receiver","type":"address","internalType":"address"}]},{"type":"error","name":"ERC3156UnsupportedToken","inputs":[{"name":"token","type":"address","internalType":"address"}]},{"type":"error","name":"OwnableInvalidOwner","inputs":[{"name":"owner","type":"address","internalType":"address"}]},{"type":"error","name":"OwnableUnauthorizedAccount","inputs":[{"name":"account","type":"address","internalType":"address"}]}],"bytecode":{"object":"0x60806040523461038c57610fd46020813803918261001c81610390565b93849283398101031261038c57516001600160a01b0381169081900361038c576100466040610390565b90601082526f26b7b730a830b1b5b2ba102a37b5b2b760811b602083015261006e6040610390565b6004815263135412d560e21b602082015282519091906001600160401b03811161029d57600354600181811c91168015610382575b602082101461027f57601f811161031f575b506020601f82116001146102bc57819293945f926102b1575b50508160011b915f199060031b1c1916176003555b81516001600160401b03811161029d57600454600181811c91168015610293575b602082101461027f57601f811161021c575b50602092601f82116001146101bb57928192935f926101b0575b50508160011b915f199060031b1c1916176004555b801561019d57600580546001600160a01b03198116831790915560405191906001600160a01b03167f8be0079c531659141344cd1fd0a4f28419497f9722a3daafe3b4186f6b6457e05f80a3610c1e90816103b68239f35b631e4fbdf760e01b5f525f60045260245ffd5b015190505f80610130565b601f1982169360045f52805f20915f5b86811061020457508360019596106101ec575b505050811b01600455610145565b01515f1960f88460031b161c191690555f80806101de565b919260206001819286850151815501940192016101cb565b60045f527f8a35acfbc15ff81a39ae7d344fd709f28e8600b4aa8c65c6b64bfe7fe36bd19b601f830160051c81019160208410610275575b601f0160051c01905b81811061026a5750610116565b5f815560010161025d565b9091508190610254565b634e487b7160e01b5f52602260045260245ffd5b90607f1690610104565b634e487b7160e01b5f52604160045260245ffd5b015190505f806100ce565b601f1982169060035f52805f20915f5b818110610307575095836001959697106102ef575b505050811b016003556100e3565b01515f1960f88460031b161c191690555f80806102e1565b9192602060018192868b0151815501940192016102cc565b60035f527fc2575a0e9e593c00f959f8c92f12db2869c3395a3b0502d05e2516446f71f85b601f830160051c81019160208410610378575b601f0160051c01905b81811061036d57506100b5565b5f8155600101610360565b9091508190610357565b90607f16906100a3565b5f80fd5b6040519190601f01601f191682016001600160401b0381118382101761029d5760405256fe6080806040526004361015610012575f80fd5b5f3560e01c90816306fdde03146107b257508063095ea7b31461070a57806318160ddd146106ed57806323b872dd146106b5578063313ce5671461069a57806340c10f191461066d57806342966c68146106505780635cffe9de1461042f578063613255ab1461040c57806370a08231146103d5578063715018a61461037a57806379cc6790146103485780638da5cb5b1461032057806395d89b411461021c578063a9059cbb146101eb578063d9d98ce4146101bc578063dd62ed3e1461016c5763f2fde38b146100e2575f80fd5b34610168576020366003190112610168576100fb610894565b610103610ae6565b6001600160a01b0316801561015557600580546001600160a01b0319811683179091556001600160a01b03167f8be0079c531659141344cd1fd0a4f28419497f9722a3daafe3b4186f6b6457e05f80a3005b631e4fbdf760e01b5f525f60045260245ffd5b5f80fd5b3461016857604036600319011261016857610185610894565b61018d6108aa565b6001600160a01b039182165f908152600160209081526040808320949093168252928352819020549051908152f35b346101685760403660031901126101685760206101e36101da610894565b60243590610931565b604051908152f35b3461016857604036600319011261016857610211610207610894565b60243590336109fd565b602060405160018152f35b34610168575f366003190112610168576040515f6004548060011c90600181168015610316575b602083108114610302578285529081156102de5750600114610280575b61027c83610270818503826108c0565b6040519182918261086a565b0390f35b91905060045f527f8a35acfbc15ff81a39ae7d344fd709f28e8600b4aa8c65c6b64bfe7fe36bd19b915f905b8082106102c457509091508101602001610270610260565b9192600181602092548385880101520191019092916102ac565b60ff191660208086019190915291151560051b840190910191506102709050610260565b634e487b7160e01b5f52602260045260245ffd5b91607f1691610243565b34610168575f366003190112610168576005546040516001600160a01b039091168152602090f35b3461016857604036600319011261016857610378610364610894565b6024359061037382338361095a565b610b57565b005b34610168575f36600319011261016857610392610ae6565b600580546001600160a01b031981169091555f906001600160a01b03167f8be0079c531659141344cd1fd0a4f28419497f9722a3daafe3b4186f6b6457e08280a3005b34610168576020366003190112610168576001600160a01b036103f6610894565b165f525f602052602060405f2054604051908152f35b346101685760203660031901126101685760206101e361042a610894565b610917565b34610168576080366003190112610168576004356001600160a01b038116908190036101685761045d6108aa565b60443560643567ffffffffffffffff811161016857366023820112156101685780600401359267ffffffffffffffff8411610168573660248584010111610168576104a781610917565b80841161063e575060249160c4826104c186602095610931565b966104cc878a610b0d565b8060405196879586946323e30c8b60e01b865233600487015260018060a01b0316828601528960448601528a606486015260a060848601528260a486015201848401375f838284010152601f801991011681010301815f885af18015610633575f906105e1575b7f439148f0bbc682ca079e46d6e2c2f0c1e3b820f1a291b069d8882abf8cf18dd99150036105cf5761056f61056883836108f6565b308561095a565b811580156105c7575b1561059157610211929161058b916108f6565b90610b57565b61059c915082610b57565b156105b45763ec442f0560e01b5f525f60045260245ffd5b634b637e8f60e11b5f525f60045260245ffd5b506001610578565b8262678c5b60e81b5f5260045260245ffd5b506020813d60201161062b575b816105fb602093836108c0565b81010312610168577f439148f0bbc682ca079e46d6e2c2f0c1e3b820f1a291b069d8882abf8cf18dd99051610533565b3d91506105ee565b6040513d5f823e3d90fd5b63fd9a760960e01b5f5260045260245ffd5b346101685760203660031901126101685761037860043533610b57565b3461016857604036600319011261016857610378610689610894565b610691610ae6565b60243590610b0d565b34610168575f36600319011261016857602060405160128152f35b34610168576060366003190112610168576102116106d1610894565b6106d96108aa565b604435916106e883338361095a565b6109fd565b34610168575f366003190112610168576020600254604051908152f35b3461016857604036600319011261016857610723610894565b60243590331561079f576001600160a01b031690811561078c57335f52600160205260405f20825f526020528060405f20556040519081527f8c5be1e5ebec7d5bd14f71427d1e84f3dd0314c0f7b2291e5b200ac8c7c3b92560203392a3602060405160018152f35b634a1406b160e11b5f525f60045260245ffd5b63e602df0560e01b5f525f60045260245ffd5b34610168575f366003190112610168575f6003548060011c90600181168015610860575b602083108114610302578285529081156102de57506001146108025761027c83610270818503826108c0565b91905060035f527fc2575a0e9e593c00f959f8c92f12db2869c3395a3b0502d05e2516446f71f85b915f905b80821061084657509091508101602001610270610260565b91926001816020925483858801015201910190929161082e565b91607f16916107d6565b602060409281835280519182918282860152018484015e5f828201840152601f01601f1916010190565b600435906001600160a01b038216820361016857565b602435906001600160a01b038216820361016857565b90601f8019910116810190811067ffffffffffffffff8211176108e257604052565b634e487b7160e01b5f52604160045260245ffd5b9190820180921161090357565b634e487b7160e01b5f52601160045260245ffd5b6001600160a01b0316300361092d576002541990565b5f90565b6001600160a01b0316905030810361094857505f90565b635ad3edc960e11b5f5260045260245ffd5b6001600160a01b039081165f818152600160209081526040808320948616835293905291909120549291905f198410610994575b50505050565b8284106109da57801561079f576001600160a01b0382161561078c575f52600160205260405f209060018060a01b03165f5260205260405f20910390555f80808061098e565b508290637dc7a0d960e11b5f5260018060a01b031660045260245260445260645ffd5b6001600160a01b038116156105b4576001600160a01b03821615610ad3576001600160a01b03169081610a815760205f516020610bc95f395f51905f5291610a47856002546108f6565b6002555b6001600160a01b03169384610a6c5780600254036002555b604051908152a3565b845f525f825260405f20818154019055610a63565b815f525f60205260405f2054838110610ab8575f516020610bc95f395f51905f529184602092855f525f84520360405f2055610a4b565b91905063391434e360e21b5f5260045260245260445260645ffd5b63ec442f0560e01b5f525f60045260245ffd5b6005546001600160a01b03163303610afa57565b63118cdaa760e01b5f523360045260245ffd5b6001600160a01b0316908115610ad3575f516020610bc95f395f51905f52602082610b3b5f946002546108f6565b60025584845283825260408420818154019055604051908152a3565b9091906001600160a01b031680156105b457805f525f60205260405f2054838110610bae576020845f94955f516020610bc95f395f51905f52938587528684520360408620558060025403600255604051908152a3565b915063391434e360e21b5f5260045260245260445260645ffdfeddf252ad1be2c89b69c2b068fc378daa952ba7f163c4a11628f55a4df523b3efa26469706673582212206110c294cc353cccc1bc2432c8d47a1eb6c64f4c152e54b92e9a9308350a16f864736f6c634300081e0033","linkReferences":{}},"methodIdentifiers":{"allowance(address,address)":"dd62ed3e","approve(address,uint256)":"095ea7b3","balanceOf(address)":"70a08231","burn(uint256)":"42966c68","burnFrom(address,uint256)":"79cc6790","decimals()":"313ce567","flashFee(address,uint256)":"d9d98ce4","flashLoan(address,address,uint256,bytes)":"5cffe9de","maxFlashLoan(address)":"613255ab","mint(address,uint256)":"40c10f19","name()":"06fdde03","owner()":"8da5cb5b","renounceOwnership()":"715018a6","symbol()":"95d89b41","totalSupply()":"18160ddd","transfer(address,uint256)":"a9059cbb","transferFrom(address,address,uint256)":"23b872dd","transferOwnership(address)":"f2fde38b"},"storageLayout":{"storage":[{"astId":39482,"contract":"src/MonaPacketToken.sol:MonaPacketToken","label":"_balances","offset":0,"slot":"0","type":"t_mapping(t_address,t_uint256)"},{"astId":39488,"contract":"src/MonaPacketToken.sol:MonaPacketToken","label":"_allowances","offset":0,"slot":"1","type":"t_mapping(t_address,t_mapping(t_address,t_uint256))"},{"astId":39490,"contract":"src/MonaPacketToken.sol:MonaPacketToken","label":"_totalSupply","offset":0,"slot":"2","type":"t_uint256"},{"astId":39492,"contract":"src/MonaPacketToken.sol:MonaPacketToken","label":"_name","offset":0,"slot":"3","type":"t_string_storage"},{"astId":39494,"contract":"src/MonaPacketToken.sol:MonaPacketToken","label":"_symbol","offset":0,"slot":"4","type":"t_string_storage"},{"astId":39094,"contract":"src/MonaPacketToken.sol:MonaPacketToken","label":"_owner","offset":0,"slot":"5","type":"t_address"}],"types":{"t_address":{"encoding":"inplace","label":"address","numberOfBytes":"20"},"t_mapping(t_address,t_mapping(t_address,t_uint256))":{"encoding":"mapping","key":"t_address","label":"mapping(address => mapping(address => uint256))","numberOfBytes":"32","value":"t_mapping(t_address,t_uint256)"},"t_mapping(t_address,t_uint256)":{"encoding":"mapping","key":"t_address","label":"mapping(address => uint256)","numberOfBytes":"32","value":"t_uint256"},"t_string_storage":{"encoding":"bytes","label":"string","numberOfBytes":"32"},"t_uint256":{"encoding":"inplace","label":"uint256","numberOfBytes":"32"}}},"id":53}